:020000042004D6
:101F000000B52B4B002199600221596129491960C4
:101F100001219960284800F042F8284A904212D0E6
:101F20000621196600F032F8196E012119660020A9
:101F30001A6600F02BF8196E196E1F4800F02FF882
:101F400001210842F9D1002199601D491960002141
:101F500059601C491C48016001219960EB211966F8
:101F6000A021196600F012F800219960174916485F
:101F700001600121996001BC002800D0004714488D
:101F80001449086003C880F30888084703B5996AB4
:101F900004200142FBD001200142F8D103BD02B56B
:101FA00018661866FFF7F2FF186E186E02BD000083
:101FB00000000018000007000500000040000000BD
:101FC00000035F0021220000F4000018222000A07E
:081FD0000001001008ED00E023
:0400000520041F01B3
:00000001FF
